:020000040800F2
:10000000F85300205D0200083B5300087B400008C5
:1000100081520008990A0008116D000800000000D4
:100020000000000000000000000000009D0100082A
:10003000350C000800000000F9010008B560000858
:1000400077020008770200087702000877020008AC
:10005000770200087702000877020008770200089C
:10006000770200087702000877020008770200088C
:10007000770200087702000877020008770200087C
:10008000770200087702000877020008770200086C
:10009000770200087702000877020008770200085C
:1000A000770200087702000877020008770200084C
:1000B000770200087702000877020008770200083C
:1000C000770200087702000877020008770200082C
:1000D00077020008056C0008770200087702000824
:1000E000770200087702000877020008770200080C
:1000F00077020008770200087702000877020008FC
:1001000077020008770200087702000877020008EB
:10011000770200087702000895610008770200085E
:10012000C10A000877020008D10A0008E10A0008A5
:1001300077020008000000000000000077020008BD
:1001400077020008770200087702000877020008AB
:100150007702000877020008F10A00087702000819
:10016000770200087702000877020008770200088B
:10017000770200087702000800000000000000007D
:100180007702000877020008DFF80CD000F06CF965
:1001900000480047D17B0008F85300202C4B196819
:1001A0000868B0E8F04F80F30988BFF36F8F4FF015
:1001B000000080F3118870470000000008480068C4
:1001C000006880F308884FF0000080F3148862B65E
:1001D00061B6BFF34F8FBFF36F8F00DF00BF00BF6B
:1001E00008ED00E0DFF80C00016841F470010160E7
:1001F000704700BF88ED00E0EFF30980BFF36F8F19
:10020000134B1A681EF0100F08BF20ED108A20E96A
:10021000F04F106009B44FF0500080F31188BFF325
:100220004F8FBFF36F8F09F009F94FF0000080F393
:10023000118809BC19680868B0E8F04F1EF0100F6B
:1002400008BFB0EC108A80F30988BFF36F8F704746
:1002500060000020EFF305807047000006488047EB
:1002600006480047FEE7FEE7FEE7FEE7FEE7FEE79B
:10027000FEE7FEE7FEE7FEE781610008890100086E
:100280002DE9F05F0546002092469B4688460646CB
:10029000814640241BE0284641464746224600F05E
:1002A0009AF853465A46C01A914110D3114618463F
:1002B000224600F081F82D1A67EB01084F462246CE
:1002C0000120002100F078F817EB00094E41201EB4
:1002D000A4F10104DFDC484631462A464346BDE826
:1002E000F09F2DE9F0410024061B254671F1000620
:1002F00005DA01240027D0EB070067EB0101161E89
:1003000073F1000605DA0027D2EB0702012567EB3F
:100310000303FFF7B5FF86460E4617469C46AC42E0
:1003200004D00025D0EB050E65EB010624B10020BA
:10033000D2EB000760EB030C704631463A46634649
:10034000BDE8F08140EA01039B0703D009E008C93A
:10035000121F08C0042AFAD203E011F8013B00F88A
:10036000013B521EF9D27047D2B201E000F8012BD6
:10037000491EFBD270470022F6E710B513460A4625
:1003800004461946FFF7F0FF204610BDF0B4CA1727
:10039000CB0F50405140C61841F100054FEAC372DF
:1003A000314628004FF0960303D0B623F0BC00F08E
:1003B0002BB830460021F9E7202A04DB203A00FA66
:1003C00002F1002070479140C2F1200320FA03F3AC
:1003D000194390407047202A04DB203A21FA02F0AA
:1003E0000021704721FA02F3D040C2F1200291406F
:1003F0000843194670470029A8BF7047401C4900B0
:1004000008BF20F00100704710B4B0FA80FC00FA79
:100410000CF050EA010404BF10BC704749B1CCF1A4
:10042000200421FA04F411FA0CF118BF0121214330
:100430000843A3EB0C01CB1D4FEA00614FEA1020EB
:1004400042BF002010BC704700EBC350104400298D
:10045000A4BF10BC7047401C490008BF20F0010039
:1004600010BC704700207047064C074D06E0E0685E
:1004700040F0010394E8070098471034AC42F6D3EB
:10048000FFF786FEE8AE000808AF000855494A6845
:1004900022F440324A604A6843681A434A6002685C
:1004A000526822F4807203685A60026853680269D5
:1004B00043EA022203685A600268526822F04072DE
:1004C00003685A600268526883681A4303685A6076
:1004D0000268926822F4006203689A600268926877
:1004E000C3681A4303689A603F4B826A9A4218D0E5
:1004F0000268926822F0706203689A6002689268EB
:10050000836A1A4303689A600268926822F0405234
:1005100003689A6002689268C36A1A4303689A6023
:100520000BE00268926822F0706203689A600268C9
:10053000926822F0405203689A600268926822F042
:10054000020203689A6002689368027E43EA4202EC
:1005500003689A602022125CA2B10268526842F4D9
:10056000006203685A600268526822F460420368BD
:100570005A6002685368426A521E43EA4232036874
:100580005A6005E00268526822F4006203685A600B
:100590000268D26A22F470020368DA620268D36ADF
:1005A000828B521E43EA02520368DA620268926842
:1005B00022F4007203689A600268936890F8302011
:1005C00043EA422203689A600268926822F48062D9
:1005D00003689A6002689368426943EA822203686A
:1005E0009A607047002301400100000F10B52DED07
:1005F000028BB0EE408A9FED0B0AC8EE000AF0EEC7
:10060000608ADFED090AB0EE680A06F0A9FEF7EE8F
:10061000000A30EEC00ADFED050A20EE200ABDEC2C
:10062000028B10BD80E6C547AEDC423E002A2D4756
:100630002DE9F04F2DED028B85B08246DAF81000DF
:10064000C010BAF81410A0EB4100BAF916104843D4
:10065000C0120390BAF81400DAF81010C0EB2110A1
:1006600040430013BAF91810484380130290DDE9A3
:1006700002100844CAF82C00DAF82C0000EB8000C5
:100680008030001208EE100AB8EEC80ADFED790AD1
:1006900080EE201A8AED001ADAF82C10C8174FF4F1
:1006A000FA33CC1A60F10005A4FB041005FB04002A
:1006B00004FB0503BAF92400C217A1FB00C803FB21
:1006C000008001FB0201CDE900C1BAF92200C11787
:1006D000A0FB042301FB043100FB0510410441EAA7
:1006E000D2315304DDE900209A184141CDE90021BF
:1006F000BAF92000C200DDE90001001C4A41CDE941
:100700000002A4FB041005FB040004FB0503BAF976
:100710001E004FEAE07CA1FB002803FB008001FBE8
:100720000C01100A40EA01600A12BAF91C104FEAE3
:10073000E17C2346A1FB039B0CFB04B301FB0531C9
:10074000090341EA19514FEA0933C41842EB010584
:10075000221C45F50040BAF81A100023A2FB018CB8
:1007600000FB01C002FB03014C10CD17002184EAFD
:1007700001006940084304D19FED3F0A8AED010A58
:100780006BE0DAF80C00C0F58010C7170646F807D2
:1007900040EA5600F307DDE9001C5A1A60EB0C0032
:1007A00040F635430021A2FB038B00FB03B001FBA5
:1007B000020122462B464046FFF793FD06460F46B0
:1007C000BAF92A00C217710B41EAC74C7B13A0FB90
:1007D0000C1802FB0C8200FB0322700B40EAC7409E
:1007E0007B13A1FB00C802FB008001FB03014FEA61
:1007F0005C6040EAC1144D16BAF92800C117A0FB8D
:10080000062301FB063100FB0711D00C40EA413002
:10081000CA14CDE90002331947EB0501DDE90020D8
:100820009A184141100A40EA016C0812BAF92610E0
:10083000CA17120142EA117209011CEB010640EBD2
:10084000020730463946FFF7A1FD00EE100ADFED42
:100850000B0A80EE201A8AED011ADAED010AB0EED9
:10086000600AFFF7C3FE8AED020A05B0BDEC028BF9
:10087000BDE8F08F0000C842000000000000804387
:1008800070B5054603F040FFD02000F0D1F80646D1
:10089000582E01D0002070BDB621E02000F0E5F810
:1008A0000A2007F0B5F90021F52000F0DEF8572402
:1008B0002146F42000F0D9F8642007F0A9F9284671
:1008C00000F002F80120E6E710B586B004461822D1
:1008D0006946882000F060F89DF800009DF801103E
:1008E00040EA0120A0829DF80300000200B29DF8BA
:1008F00002100843E0829DF80500000200B29DF856
:100900000410084320839DF806009DF8071040EA74
:10091000012161839DF80900000200B29DF80810D2
:100920000843A0839DF80B00000200B29DF80A1056
:100930000843E0839DF80D00000200B29DF80C1002
:10094000084320849DF80F00000200B29DF80E10AD
:10095000084360849DF81100000200B29DF8101059
:100960000843A0849DF81300000200B29DF8121005
:100970000843E0849DF81500000200B29DF81410B1
:10098000084320859DF81700000200B29DF816105C
:100990000843608506B010BD2DE9F04107460C46BE
:1009A000154603F05FFFEC2003F02CFF03F094FFEB
:1009B000384603F027FF03F08FFF03F053FFED20CD
:1009C00003F020FF03F088FF002605E0012003F07C
:1009D000E9FEA055701C86B2681EB042F6DC00200D
:1009E00003F0E0FE691E605403F058FFBDE8F0819B
:1009F0001CB5044606226946F720FFF7CDFF9DF897
:100A0000000000039DF8011040EA01109DF802105B
:100A100040EA2110E0609DF8030000039DF80410F7
:100A200040EA01109DF8051040EA211020611CBD2C
:100A300070B5044603F016FFEC2003F0E3FE03F06C
:100A40004BFF204603F0DEFE03F046FF03F00AFFF3
:100A5000ED2003F0D7FE03F03FFF002003F0A2FEDD
:100A6000054603F01BFF284670BD70B505460C46D1
:100A700003F0F8FEEC2003F0C5FE03F02DFF28463E
:100A800003F0C0FE03F028FF204603F0BBFE03F096
:100A900023FF03F003FF70BD00BFFEE710B5024661
:100AA0000B460020002104E0545C0444A0B24C1C1E
:100AB000A1B29942F8DB4FF6FF71081A10BD000091
:100AC00010B5024800F080FE10BD00004C0400206C
:100AD00010B5024800F078FE10BD0000CC050020E3
:100AE00010B5024800F070FE10BD0000EC030020BD
:100AF00010B5024800F068FE10BD00002C06002072
:100B00000146087810381823B0FBF3F20848805CDF
:100B1000C865032A05D908686FF30900001D8865B8
:100B200003E008686FF309008865886D704700006E
:100B300040AD0008014600208A6A8B69CBB932B10A
:100B4000012A0DD0022A03D0032A10D10EE000BFE3
:100B5000CB6A03F08073B3F1807F00D1012007E0FE
:100B6000CB6AB3F1C07F00D1012001E000E000BFFB
:100B700034E08B69B3F5005F1AD132B1012A07D096
:100B8000022A03D0032A11D10AE000BF01200EE09F
:100B9000CB6A03F08073B3F1807F00D1012006E0BF
:100BA000CB6AB3F1C07F00D1012000E000BF15E0A7
:100BB00032B1012A05D0022A04D0032A0CD103E065
:100BC00000BF00BF012008E0CB6A03F08073B3F1DF
:100BD000807F00D1012000E000BF00BF704730B52A
:100BE0000468246824F4802405682C600468636029
:100BF0008468402C04D10468A2600468E16003E0CA
:100C00000468A1600468E26030BD00000748006825
:100C100040F080700549086000200549486008469A
:100C2000006840F00100086070470000FCED00E043
:100C3000001000E0704772B600BFFEE710B5044632
:100C40004FF494712046FFF796FBB1EE0C0A84ED49
:100C5000000A9FED560A84ED010A9FED550A84EDC6
:100C6000020A9FED540A84ED040A9FED530A84EDB5
:100C7000070AB1EE0C0A84ED120A9FED4C0A84EDCE
:100C8000130A9FED4B0A84ED140A9FED4A0A84ED86
:100C9000160A9FED490A84ED190AB0EE000A84EDA8
:100CA000240A9FED460A84ED250A9FED450A84ED4E
:100CB000260A9FED440A84ED280AB7EE000A84ED67
:100CC0002B0A9FED410A84ED090A9FED400A84ED4D
:100CD0000A0A9FED3F0A84ED0B0A9FED3E0A84ED60
:100CE0000D0A9FED330A84ED100A9FED370A84ED5B
:100CF0001B0A9FED360A84ED1C0A9FED350A84ED30
:100D00001D0A9FED340A84ED1F0A9FED290A84ED28
:100D1000220AB1EE080A84ED2D0A9FED2F0A84ED18
:100D20002E0A9FED2E0A84ED2F0A9FED2D0A84EDE9
:100D3000310A9FED1F0A84ED340A9FED2A0A84EDE3
:100D4000360AB0EE000A84ED370A9FED270A84EDDB
:100D5000380A9FED200A84ED3A0A9FED240A84EDBB
:100D60003D0A9FED1D0AFC3484ED000A9FED1A0A2E
:100D700084ED010A9FED180A84ED020A9FED160A20
:100D800084ED030A9FED140A84ED040A9FED120A14
:100D900084ED050A9FED100A84ED060A00206084A8
:100DA000A084E0842085FC3C10BD00009A99193F86
:100DB0008FC2F53D000016440AD7233ECDCCCC3D72
:100DC0000AD7A33C00004843333323419A99993E04
:100DD000CDCC4C3D00009643000000008FC2753D15
:100DE00000004844000020430080A2450AD7A33DEC
:100DF00010B50446204604F0A3FA04F1240004F0E0
:100E00009FFA04F1480004F09BFA04F16C0004F02E
:100E100097FA04F1900004F093FA04F1B40004F09E
:100E20008FFA04F1D80004F08BFA9FED0C0AFC3421
:100E300084ED000A9FED090A84ED010A9FED070A7F
:100E400084ED020A9FED050A84ED040A0020608407
:100E5000A084E0842085FC3C10BD00000000000060
:100E600080ED440A7047000080ED3F0AC0ED400A63
:100E700080ED411AF5EEC01AF1EE10FA04D29FEDA2
:100E80000A2A80ED422A0DE09FED082AF4EEC21AEC
:100E9000F1EE10FA04DD9FED052A80ED422A01E013
:100EA000C0ED421A7047000000000000004083457A
:100EB00080ED430A7047000030B52DED108B8BB0EC
:100EC00004460D4695ED1B0AB0EE40DAB5EEC0DAE9
:100ED000F1EE10FA03D89FEDD10AB0EE40DAD5ED6D
:100EE00012DA95ED13EAD5ED14EA95ED070ADFED78
:100EF000CC0A20EE20FA95ED080ADFEDC90A20EEB3
:100F0000200A8DED0A0A95ED090ADFEDC50A20EEEB
:100F1000200A8DED090A94ED3F0A30EE6D0A8DED41
:100F2000080A94ED400A30EE4E0A8DED070A94ED62
:100F3000410A70EE6E8A9FEDBB0AF4EEC08AF1EEB4
:100F400010FA06DD9FEDB80A38EEC00AF0EE408ACE
:100F50000CE09FEDB60AF4EEC08AF1EE10FA05D26D
:100F60009FEDB10A38EE800AF0EE408AF0EE4D0AAD
:100F70009DED080A204604F0F7F98DED060AF0EE23
:100F80004D0A9DED070A04F1480004F0EDF98DEDDE
:100F9000050AF0EE4D0AB0EE680A04F1900004F084
:100FA000E3F98DED040A9DED060ADDED0A0A30EE47
:100FB000600A8DED030A9DED050A30EE0F0A8DEDF6
:100FC000020A9DED040ADDED090A30EE200A8DEDDE
:100FD000010AF0EE4D0A9DED030A04F1240004F02D
:100FE000C3F9F0EE409AF0EE4D0A9DED020A04F1CD
:100FF0006C0004F0B9F9B0EE40AAF0EE4D0A9DED98
:10100000010A04F1B40004F0AFF9B0EE409ADFED4C
:1010100088FA94F81C01022805D19FED850A8548BD
:1010200080ED000A31E094ED430AD4ED440A30EE3D
:10103000600AF0EE40CA9FED800AF4EEC0CAF1EEFD
:1010400010FA03DD9FED7C0AF0EE40CA9FED7B0AAB
:10105000F4EEC0CAF1EE10FA03D29FED780AF0EE7A
:1010600040CADFED770AB0EE6C0A04F1D80004F054
:101070007BF9704880ED000A94ED440A84ED450A3E
:1010800090ED000AF0EE40FA00BF94ED420A30EE17
:101090002F8A95ED1E0ADFED6B0AB4EEE00AF1EE41
:1010A00010FA13D295ED1E0ADFED5D0A80EE201ACC
:1010B000F0EE41CAB0EE6C0A06F0AAF8B7EE001ADC
:1010C000C1EE000A20EE880AB0EE408A95ED060ACD
:1010D000DFED5D0A30EE600AB0EEC00ADFED5B0ABC
:1010E000B4EEE00AF1EE10FA13D295ED1E0AB0EE5E
:1010F000C00AF0EE000AB4EEE00AF1EE10FA08D2EF
:1011000094F81C01032804D1B0EE480A204605F0EB
:10111000DDFD38EE0A0A30EE690A70EE09AA38EEF3
:101120004A0A30EE690A30EE49BA38EE0A0A30EE61
:10113000290A70EE49BA38EE4A0A30EE290A30EE32
:1011400009CAF5EEC0AAF1EE10FA03D29FED380AF3
:10115000F0EE40AA9FED3E0AF4EEC0AAF1EE10FABE
:1011600003DD9FED3B0AF0EE40AAB5EEC0BAF1EE0A
:1011700010FA03D29FED2E0AB0EE40BA9FED340A6A
:10118000B4EEC0BAF1EE10FA03DD9FED310AB0EE15
:1011900040BAF5EEC0BAF1EE10FA03D29FED240A80
:1011A000F0EE40BA9FED2A0AF4EEC0BAF1EE10FA62
:1011B00003DD9FED270AF0EE40BAB5EEC0CAF1EEAE
:1011C00010FA03D29FED1A0AB0EE40CA9FED200A32
:1011D000B4EEC0CAF1EE10FA03DD9FED1D0AB0EEC9
:1011E00040CABCEEEA0A10EE100AA4F81E01BCEEDA
:1011F000CB0A10EE100AA4F82001BCEEEB0A10EEA8
:10120000100AA4F82201BCEECC0A10EE100AA4F8D1
:1012100024010BB0BDEC108B30BD00006F12833A7F
:10122000E12E6542000034430000B443000034C3A3
:1012300000000000480000209A99193F9A9919BFB0
:101240000AD7A33C0000704252B87E3FCDCCCC3DC3
:101250000040834538B502460020009000BF92F858
:101260003C00012801D1022038BD012082F83C0059
:1012700000BF0868092816D91068C0680C780A3CB5
:1012800004EB44050724AC40A0431468E0600C78EC
:101290000A3C04EB44048868A0401468E4682043D6
:1012A0001468E06013E0106800690C7804EB4405F2
:1012B0000724AC40A043146820610C7804EB44047C
:1012C0008868A04014682469204314682061486835
:1012D000072817D21068406B0C79641E04EB840554
:1012E0001F24AC40A04314686063088880B20C7966
:1012F000641E04EB8404A0401468646B20431468EB
:10130000606331E048680D2817D21068006B0C79D3
:10131000E41F04EB84051F24AC40A0431468206341
:10132000088880B20C79E41F04EB8404A0401468A0
:10133000246B20431468206316E01068C06A0C799F
:101340000D3C04EB84051F24AC40A0431468E0620C
:10135000088880B20C790D3C04EB8404A04014682A
:10136000E46A20431468E062194B1A4C1068A042EA
:1013700006D10868122803D1586840F480005860EC
:10138000144C1068A0421CD10868102802D00868CC
:10139000112816D1586840F40000586008681028D9
:1013A0000FD10D4800680D4CB0FBF4F000EB80004D
:1013B0004000009002E00098401E00900098002835
:1013C000F9D100BF002082F83C0000BF00BF4BE70E
:1013D00000230140002001405C00002040420F003B
:1013E0000146086C704701460868C06C70470000F1
:1013F00070B5044600250CB9012070BD1549A06ADE
:10140000884200D000BF206C30B9204600F024F89C
:101410000020606484F83C00206C00F0100088B963
:10142000206C20F4885040F0020020642046FFF732
:101430002DF800206064206C20F0020040F00100D4
:10144000206400E0012500BF002084F83C0000BFBC
:101450002846D2E70100000F10B586B004461421DB
:1014600001A8FEF788FF1949206888422BD100BFE8
:10147000002000901648006840F48070144908600D
:101480000846006800F48070009000BF00BF00BFF5
:10149000002000900E481438006840F004000C4909
:1014A000143908600846006800F00400009000BF8E
:1014B00000BF10200190032002900020039001A99A
:1014C000044800F061FB06B010BD000000200140A0
:1014D000443802400008024070B504460D4600261C
:1014E0002068806800F48060B0F5806F11D12068BA
:1014F000806800F48070B0F5807F0AD1206C40F0E5
:101500002000206400BF002084F83C0000BF0120C0
:1015100070BD00F04BFC064618E0681CB0B125B168
:1015200000F044FC801BA84210D92068006800F03D
:10153000020002280AD0206C40F00400206400BFA2
:10154000002084F83C0000BF0320E1E72068006829
:1015500000F002000228E0D16FF01200216808605C
:10156000206C40F4007020642068806800F04050D7
:10157000B8B9207EA8B92068C06A00F4700020B114
:101580002068806800F4806058B9206C20F4807076
:101590002064206C00F4805018B9206C40F00100E9
:1015A00020640020B4E7000008B501460020009048
:1015B00000BF91F83C00012801D1022008BD0120A4
:1015C00081F83C0000BF0868806800F00100A0B905
:1015D0000868806840F001000B6898603F48006828
:1015E0003F4BB0FBF3F000EB4000009002E00098AE
:1015F000401E009000980028F9D10868806800F02B
:101600000100002860D0086C40F20163984340F468
:10161000807008640868406800F4806028B1086C35
:1016200020F4005040F480500864086C00F48050AE
:10163000B0F5805F04D1486C20F00600486401E0FA
:101640000020486400BF002081F83C0000BF254A0C
:101650006FF022000B681860506800F01F0018BB84
:10166000214B0868984213D0204B0868984204D157
:10167000101D006800F01F0050B11D4B0868984213
:101680002AD11848001D006800F01F00102823D23E
:101690000868806800F04050F0B90868806840F041
:1016A00080400B68986017E00F4B0868984213D190
:1016B0000868806800F0405070B90868806840F0A1
:1016C00080400B68986007E0086C40F010000864E8
:1016D000486C40F00100486400206FE75C00002087
:1016E00040420F0000230140002001400021014042
:1016F0000022014070B50446A56D00F057FB064678
:1017000094F83500022808D08020606500BF0020D2
:1017100084F8340000BF012070BD2068006820F00C
:101720001600216808602068406920F08000216868
:101730004861206C08B9A06C28B12068006820F0CE
:101740000800216808602068006820F00100216816
:10175000086010E000F02AFB801B05280BD9202030
:101760006065032084F8350000BF002084F8340051
:1017700000BF0320D0E72068006800F001000028C7
:10178000E8D194F85C103F208840A860012084F8DC
:10179000350000BF002084F8340000BF00BFBBE765
:1017A000014691F83500022803D0802048650120C9
:1017B0007047052081F835000868006820F00100B6
:1017C0000A6810600020F3E7F8B504460020009096
:1017D0008C4800684FF41651B0FBF1F7A56D2E68E8
:1017E00094F85C1008208840304098B12068006868
:1017F00000F0040070B12068006820F00400216847
:10180000086094F85C1008208840A860606D40F083
:101810000100606594F85C1001208840304068B198
:101820002068406900F0800040B194F85C1001200D
:101830008840A860606D40F00200606594F85C101C
:1018400004208840304068B12068006800F0020041
:1018500040B194F85C1004208840A860606D40F0AE
:101860000400606594F85C1010208840304078B324
:101870002068006800F0080050B394F85C10102055
:101880008840A8602068006800F4802080B120684B
:10189000006800F4002028B9206CC8B12046216CF3
:1018A000884715E0A06C98B12046A16C88470FE0EE
:1018B0002068006800F4807028B92068006820F073
:1018C000080021680860206C10B12046216C884710
:1018D00094F85C10202088403040002865D02068B3
:1018E000006800F0100000285FD094F85C10202001
:1018F0008840A86094F83500052828D12068006841
:1019000020F01600216808602068406920F08000FF
:1019100021684861206C08B9A06C28B12068006873
:1019200020F008002168086094F85C103F2088408F
:10193000A860012084F8350000BF002084F834003E
:1019400000BF206D10B12046216D8847F8BD20688A
:10195000006800F4802080B12068006800F4002056
:1019600028B9606C10B12046616C88471DE0E06BBF
:10197000D8B12046E16B884717E02068006800F482
:10198000807068B92068006820F010002168086045
:10199000012084F8350000BF002084F8340000BF27
:1019A000E06B10B12046E16B8847606D38B3606D25
:1019B00000F00100F0B1052084F8350020680068CF
:1019C00020F001002168086000BF0098401C0090D2
:1019D000B84200D905E02068006800F00100002846
:1019E000F3D100BF012084F8350000BF002084F847
:1019F000340000BFE06C10B12046E16C884700BFA6
:101A0000A4E700005C0000202DE9F0410446002519
:101A100000F0CCF9074614B90120BDE8F081606AF6
:101A200000B100BF022084F8350000BF002084F818
:101A3000340000BF2068006820F0010021680860C1
:101A40000AE000F0B3F9C01B052805D92020606525
:101A5000032084F83500E0E72068006800F001000A
:101A60000028EED12068056821480540D4E901012D
:101A70000843E16808432169084361690843A16993
:101A80000843E1690843216A08430543606A042862
:101A900003D1D4E90B0108430543206805602068A1
:101AA000456925F00705606A0543606A04280DD181
:101AB000A06A0543E06A48B12046FFF73BF828B129
:101AC00040206065012084F83500A6E72068456164
:101AD0002046FFF715F8064694F85C103F20884032
:101AE000B06000206065012084F83500002094E794
:101AF0003F8010F02DE9F04704460D4616461F467C
:101B00004FF00008D4F8589000BF94F83400012832
:101B100002D10220BDE8F087012084F8340000BF24
:101B200094F83500012825D1022084F835000020E2
:101B300060653B46324629462046FFF750F894F848
:101B40005C103F208840C9F808002068006840F019
:101B5000160021680860206C28B12068006840F0F9
:101B60000800216808602068006840F001002168D2
:101B7000086006E000BF002084F8340000BF4FF08A
:101B800002084046C6E70000F8B502460B460025AD
:101B9000002400200021D6E0012606FA01F51E6887
:101BA00006EA0504AC4274D11E7906F00306012E44
:101BB00004D01E7906F00306022E13D190684F0060
:101BC0000326BE40B0434F00DE68BE403043906005
:101BD000506801268E40B0431E79C6F300168E4031
:101BE000304350601E7906F00306032E09D0D068FA
:101BF0004F000326BE40B0434F009E68BE403043B6
:101C0000D0601E7906F00306022E13D1CF0802F130
:101C1000200656F827004E07F70E0F26BE40B043A9
:101C20004F07FF0E1E69BE403043CF0802F1200669
:101C300046F8270010684F000326BE40B0431E79C7
:101C400006F003064F00BE40304310605E6806F4A5
:101C50004036002E76D000BF002600963C4E3668F7
:101C600046F480463A4F3E603E46366806F480466B
:101C7000009600BF00BF374E8F0856F827008E072A
:101C8000370F0F26BE40B043334EB24202D100267A
:101C900024E057E0314EB24201D101261EE0304E21
:101CA000B24201D1022619E02E4EB24201D10326E2
:101CB00014E02D4EB24201D104260FE02B4EB24269
:101CC00001D105260AE02A4EB24201D1062605E0DE
:101CD000284EB24201D1072600E008268F073F0FA9
:101CE000BE4030431B4E8F0846F82700224E306816
:101CF000A0435E6806F4801606B120431E4E306095
:101D0000361D3068A0435E6806F4001606B1204315
:101D1000194E361D3060184E361F3068A0435E687D
:101D200006F4003606B12043134E361F3060361FCE
:101D30003068A0435E6806F4803606B120430E4E3C
:101D4000083E3060491C1029FFF426AFF8BD0000A2
:101D500044380240083801400000024000040240BC
:101D600000080240000C0240001002400014024033
:101D700000180240001C0240083C01400246136962
:101D80000B400BB1012000E00020704710B5426904
:101D900021EA020302EA010443EA0443836110BD1D
:101DA0000AB1816101E00B0483617047014800685A
:101DB000704700005000002070B504460CB90120A7
:101DC00070BD94F83D0028B9002084F83C002046FE
:101DD00000F0DAF8242084F83D002068006820F044
:101DE0000100216808602068006840F40040216814
:101DF00008602068006820F400402168086000F056
:101E000005FB05465C496068884206D85B48854208
:101E100001D2012007E0002005E05948854201D2A7
:101E2000012000E00020012800D1C9E75548B5FB9A
:101E3000F0F62068406820F03F0030432168486099
:101E40004D496068884201D8701C07E04FF49670D5
:101E500070434FF47A71B0FBF1F0401C2168096ABD
:101E600021F03F01084321680862434960688842C5
:101E700014D8681E61684900B0FBF1F0401CC0F343
:101E80000B00042801D204203DE0681E616849006F
:101E9000B0FBF1F0401CC0F30B0034E0A06838B98F
:101EA000681E616801EB4101B0FBF1F0401C0AE0E3
:101EB000681E616801EBC10202EB0111B0FBF1F099
:101EC000401C40F48040C0F30B0008B901201AE028
:101ED000A06848B9681E616801EB4101B0FBF1F0F0
:101EE000401CC0F30B000CE0681E616801EBC102EE
:101EF00002EB0111B0FBF1F0401CC0F30B0040F409
:101F0000804040F400402168C9694CF6FF7291435B
:101F100008432168C861D4E90701084321680968BA
:101F200021F0C001084321680860D4E90310084388
:101F30002168896848F2FF3291430843216888602C
:101F4000D4E9050108432168C96821F0FF0108436D
:101F50002168C8602068006840F0010021680860BE
:101F600000202064202084F83D000020206384F8B5
:101F70003E0000BF24E70000A086010080841E0010
:101F800000093D0040420F0010B586B00446142100
:101F900001A8FEF7F0F91B49206888422FD100BF45
:101FA000002000901848006840F0020016490860C0
:101FB0000846006800F00200009000BF00BFC0208B
:101FC000019012200290002003900320049004202E
:101FD000059001A90D48FFF7D7FD00BF0020009034
:101FE00009481030006840F40010074910310860BB
:101FF0000846006800F40010009000BF00BF06B063
:1020000010BD00000054004030380240000402407F
:10201000034800680349097808440149086070478B
:10202000500000205800002010B50D48006840F412
:1020300000700B4908600846006840F48060086042
:102040000846006840F480700860032000F0E0F863
:102050000F2000F007F800F05FF8002010BD00002E
:10206000003C02402DE9F04188B004460027B84604
:1020700000BF002001902348006840F01000214973
:1020800008600846006800F01000019000BF00BF23
:1020900002A903A800F092F9069F1FB900F0B6F953
:1020A000054602E000F0B2F945001748B5FBF0F034
:1020B000A0F1010815481649086040F2E7311448BC
:1020C000C160C0F80480002101618160816101F07C
:1020D000E3F8064696B90E4801F02CF906466EB9AB
:1020E000362000F043F8102C07D20022214636207B
:1020F00000F050F80748046000E00126304608B0C0
:10210000BDE8F0814038024040420F00001000401E
:102110008C0600205400002008B500BF002000906D
:102120001148006840F480400F4908600846006884
:1021300000F48040009000BF00BF00BF002000906E
:10214000081F006840F08050091F086008460068BA
:1021500000F08050009000BF00BF00220F21901EB1
:1021600000F018F808BD0000443802400146084657
:1021700000280DDB00BF00BF00F01F0301229A40C2
:1021800043099B0003F1E023C3F8002100BF00BF17
:1021900000BF70472DE9F05F80460D4616460027C8
:1021A00004F0CCFD074639462A46334601F00700C5
:1021B000C0F1070ABAF1040F02D94FF0040A01E096
:1021C000C0F1070AD14600F1040ABAF1070F02D2A2
:1021D0004FF0000A01E0A0F1030AD4464FF0010AD3
:1021E0000AFA09FAAAF1010A0AEA020A0AFA0CFA38
:1021F0004FF0010B0BFA0CFBABF1010B0BEA030BDD
:102200004AEA0B042146404604F0A0FDBDE8F09FD9
:1022100000BF00F00702064B19684FF6FF03194094
:10222000044B0B4343EA0221014B196000BF704786
:102230000CED00E00000FA0570B504460D460CB93F
:10224000012070BD5848006800F00700A84209D27C
:1022500055490D700846006800F00700A84201D0FB
:102260000120EEE7207800F0020002281DD120783E
:1022700000F00400042805D14C48006840F4E05008
:102280004A490860207800F00800082805D147482E
:10229000006840F46040454908604448006820F008
:1022A000F000A168084341490860207800F001006F
:1022B000A8B36068012807D13C4808380068C0F31B
:1022C0004040B8B90120BCE76068022802D06068CD
:1022D000032807D1354808380068C0F3406048B982
:1022E0000120AEE7314808380068C0F3400008B963
:1022F0000120A6E72D48006820F00300616808432C
:102300002A490860FFF752FD064609E0FFF74EFD37
:10231000801B41F28831884202D9032091E707E00F
:102320002248006800F00C006168B0EB810FEDD12D
:102330001D48006800F00700A84209D91A490D702D
:102340000846006800F00700A84201D0012078E7A5
:10235000207800F00400042807D11448006820F415
:10236000E050E168084311490860207800F0080057
:10237000082808D10D48006820F46040216940EA2F
:10238000C1000A49086000F061F808490968C1F312
:102390000311074A515CC8400649086006480068B6
:1023A000FFF760FE00204CE7003C02400838024086
:1023B00048AD00085C000020540000200F2202609D
:1023C0000D4A126802F0030242600B4A126802F0E2
:1023D000F0028260084A126802F4E052C260064AC3
:1023E000126802F46042D2080261044A126802F0E4
:1023F00007020A607047000008380240003C0240B3
:1024000001480068704700005C00002000B5FFF73D
:10241000F7FF04490968C1F38221034A515CC840AF
:1024200000BD00000838024058AD000800B5FFF7B5
:10243000E7FF04490968C1F34231034A515CC840CF
:1024400000BD00000838024058AD00082DE9F047F3
:10245000002400250026A1462548006800F00C0055
:1024600020B1042805D008283AD105E0DFF884908F
:1024700039E0DFF8849036E01D48001F006800F066
:102480003F041B48001F006800F4800078B11A4820
:102490001749091F0968C1F38811A0FB01700146A3
:1024A000224600233846FDF7EBFE05460EE01148B4
:1024B0000F49091F0968C1F38811A0FB017001468B
:1024C000224600233846FDF7DBFE05460848001F7C
:1024D0000068C0F30140401C4600B5FBF6F902E07D
:1024E000DFF8109000BF00BF4846BDE8F08700004D
:1024F000083802400024F40000127A00F8B50446BF
:102500000CB90120F8BD207800F00100002874D03B
:10251000F948006800F00C0004280DD0F648006867
:1025200000F00C00082813D1F348001F006800F4E5
:102530008000B0F5800F0BD1EF4808380068C0F379
:102540004040002859D06068002856D10120D9E7C2
:1025500000BF6068B0F5803F08D1E74808380068E0
:1025600040F48030E449083908601EE06068B0F546
:10257000A02F0DD1E0480838006840F48020DE49E3
:10258000083908600846006840F4803008600CE0B4
:10259000D9480838006820F48030D74908390860E5
:1025A0000846006820F48020086000BF606890B191
:1025B000FFF7FCFB054606E0FFF7F8FB401B64282D
:1025C00001D903209EE7CC4808380068C0F340409A
:1025D0000028F1D011E0FFF7E9FB054606E0FFF720
:1025E000E5FB401B642801D903208BE7C24808386B
:1025F0000068C0F340400028F1D1207800F00200CC
:1026000002285FD1BC48006800F00C0058B1BA48FD
:10261000006800F00C0008281CD1B748001F0068B3
:1026200000F48000B0B9B44808380068C0F3400036
:1026300020B1E068012801D0012063E7AE480838E6
:10264000006820F0F800216940EAC100AA49083971
:10265000086037E0E06800B30120A8490860FFF790
:10266000A5FB054606E0FFF7A1FB401B022801D9A8
:10267000032047E7A04808380068C0F3400000285E
:10268000F1D09D480838006820F0F800216940EA40
:10269000C10099490839086014E000209749086092
:1026A000FFF784FB054606E0FFF780FB401B02288E
:1026B00001D9032026E7904808380068C0F340009D
:1026C0000028F1D1207800F0080008282CD160699A
:1026D000A8B101208A490860FFF768FB054606E0BB
:1026E000FFF764FB401B022801D903200AE7824858
:1026F0006C300068C0F340000028F1D014E00020E6
:102700007F490860FFF752FB054606E0FFF74EFBE6
:10271000401B022801D90320F4E677486C3000689A
:10272000C0F340000028F1D1207800F00400042814
:1027300070D1002770483830006800F0805090B9A0
:1027400000BF002000906C483830006840F0805096
:102750006949383108600846006800F080500090F0
:1027600000BF00BF01276748006800F48070B0B95F
:102770006448006840F4807062490860FFF716FB07
:10278000054606E0FFF712FB401B022801D9032093
:10279000B8E65C48006800F480700028F2D000BF02
:1027A000A068012808D154486830006840F0010052
:1027B0005149683108601DE0A06805280DD14E48D8
:1027C0006830006840F004004B49683108600846F2
:1027D000006840F0010008600CE04748683000687D
:1027E00020F001004449683108600846006820F084
:1027F0000400086000BFA068A8B1FFF7D7FA05463B
:1028000009E0FFF7D3FA401B41F28831884202D930
:10281000032077E626E0384868300068C0F34000BF
:102820000028EED013E0FFF7C1FA054608E0FFF7F5
:10283000BDFA401B41F28831884201D9032061E68C
:102840002D4868300068C0F340000028EFD1012F08
:1028500007D129483830006820F0805026493831A7
:10286000086000BFA069002845D02348006800F038
:102870000C0008285DD0A069022845D100201F491E
:102880000866FFF793FA054606E0FFF78FFA401B4C
:10289000022801D9032035E6174808380068C0F33C
:1028A00040600028F1D1D4E907010843616A40EA99
:1028B00081110122A06AC2EB500041EA00412C20A4
:1028C000005D41EA00600C49091F086001200B49C6
:1028D0000866FFF76BFA054606E0FFF767FA401B4C
:1028E000022801D903200DE6034808380068C0F328
:1028F00040600028F1D049E008380240000047421B
:10290000800E474200700040002021490866FFF712
:102910004DFA054606E0FFF749FA401B022801D9A7
:102920000320EFE51B480068C0F340600028F2D1A7
:102930002CE0A069012800D1E4E51648001D0668D6
:10294000A069012820D006F48001E06981421BD1F2
:1029500006F03F01206A814216D147F6C070304030
:10296000616AB0EB811F0FD106F440310122A06AE9
:10297000C2EB5000B1EB004F06D106F070612C2085
:10298000005DB1EB006F01D00120BBE50020B9E58F
:10299000000047420038024070B504460025A06C94
:1029A00040B1A06CFEF7A6FE20B1606D40F01000B3
:1029B00060650125E06C40B1E06CFEF79BFE20B144
:1029C000606D40F01000606501252068406820F0CF
:1029D000030021684860012084F85100284670BD3A
:1029E000704710B504460CB9012010BD606A38B9B3
:1029F0006068B0F5827F00D105E00021E16102E06E
:102A00000021216161610021A16294F8510028B97F
:102A1000002084F85000204600F048F8022084F896
:102A200051002068006820F0400021680860A088FC
:102A300000F48270218901F404410843A18901F462
:102A400000610843217C01F002010843217D01F06F
:102A500001010843218B01F400710843217F01F03B
:102A6000380108432021095D01F080010843218DD0
:102A700001F400510843216808600421A06901EABB
:102A8000104094F8241001F01001084321684860B8
:102A90002068C06920F400602168C861002060657A
:102AA000012084F8510000209FE7000010B586B097
:102AB0000446142101A8FDF75EFC544920688842B1
:102AC0006BD100BF002000905148006840F4805056
:102AD0004F4908600846006800F48050009000BF2D
:102AE00000BF00BF0020009049481438006840F043
:102AF00001004749143908600846006800F00100E9
:102B0000009000BF00BFE020019002200290002052
:102B10000390032004900520059001A93D48FFF78C
:102B200033F83D483D4908604FF0C060486040219F
:102B30003A4881600021C1604FF480610161002149
:102B400041618161C16101624162FEF75DFF08B1CF
:102B5000FEF771F800BF3148A064846300BF2E48BF
:102B600048382F4908604FF0C060486000212C4869
:102B70008160C1604FF48061016100214161816128
:102B8000C16101624162FEF73FFF08B1FEF753F8F1
:102B900000BF2348E064846336E02249206888420D
:102BA00032D100BF002000901948001F006840F497
:102BB00000401749091F08600846006800F40040FB
:102BC000009000BF00BF00BF0020009010481438E4
:102BD000006840F004000E49143908600846006897
:102BE00000F00400009000BF00BF4FF4E0500190DF
:102BF00002200290002003900320049006200590FC
:102C000001A90948FEF7C0FF06B010BD0030014021
:102C1000443802400000024058640240EC030020A7
:102C20004C040020003C0040000802407047704700
:102C30002DE9F84304460F4616461D46FFF7B6F841
:102C40008046B14694F85100012802D00220BDE828
:102C5000F88307B10EB90120F9E700BF94F85000DE
:102C6000012801D10220F2E7012084F8500000BFC2
:102C7000032084F85100002060652763A686E6865D
:102C8000A063A087E08760642064A068B0F5004F6F
:102C90000BD12068006820F040002168086020689F
:102CA000006840F48040216808602068006800F0F7
:102CB0004000402805D02068006840F040002168AE
:102CC0000860E068B0F5006F37D1606810B1B9F105
:102CD000010F09D1206B00882168C860206B801C1F
:102CE0002063E08E401EE08623E02068806800F0CC
:102CF000020002280AD1206B00882168C860206B7E
:102D0000801C2063E08E401EE08612E0FFF74EF844
:102D1000A0EB0800A84201D3681C00B94DB90120FE
:102D200084F8510000BF002084F8500000BF032049
:102D30008DE7E08E0028D8D136E0606810B1B9F197
:102D4000010F09D1206B007821680873206B401CAB
:102D50002063E08E401EE08623E02068806800F05B
:102D6000020002280AD1206B007821680873206BCA
:102D7000401C2063E08E401EE08612E0FFF716F84C
:102D8000A0EB0800A84201D3681C00B94DB901208E
:102D900084F8510000BF002084F8500000BF0320D9
:102DA00055E7E08E0028D8D142462946204602F059
:102DB0002BFD08B120206065A06850B900BF00203D
:102DC00000902068C068009020688068009000BF74
:102DD00000BF012084F8510000BF002084F850009B
:102DE00000BF606D08B1012031E700202FE72DE919
:102DF000FE4F04460F4690461D460C9E0120019052
:102E0000FEF7D4FF814694F851B060680290AA465C
:102E1000BBF1010F0BD00298B0F5827F04D1A068FE
:102E200010B9BBF1040F02D00220BDE8FE8F1FB124
:102E3000B8F1000F00D00DB90120F6E700BF94F8FB
:102E40005000012801D10220EFE7012084F8500052
:102E500000BF94F85100042802D0052084F85100E6
:102E600000206065C4F83880E587A5872763E5867C
:102E7000A586206460642068006800F04000402857
:102E800005D02068006840F0400021680860E068D4
:102E9000B0F5006F52D1606810B1BAF1010F09D1DD
:102EA000206B00882168C860206B801C2063E08E46
:102EB000401EE0863BE02068806800F002000228A7
:102EC00010D1E08E70B1019801280BD1206B0088E1
:102ED0002168C860206B801C2063E08E401EE08665
:102EE000002001902068806800F0010068B1E08F48
:102EF00058B12068C068A16B0880A06B801CA063DB
:102F0000E08F401EE08701200190FEF74FFFA0EB0D
:102F10000900B0420BD3701C48B1012084F8510065
:102F200000BF002084F8500000BF03207DE7E08E42
:102F30000028C0D1E08F0028BDD152E0606810B1F8
:102F4000BAF1010F09D1206B007821680873206B5A
:102F5000401C2063E08E401EE0863CE020688068D4
:102F600000F00200022810D1E08E70B10198012813
:102F70000BD1206B007821680873206B401C206304
:102F8000E08E401EE086002001902068806800F0FE
:102F9000010068B1E08F58B12068C068A16B08706B
:102FA000A06B401CA063E08F401EE08701200190D1
:102FB000FEF7FCFEA0EB0900B04201D3701C00B983
:102FC0004EB9012084F8510000BF002084F8500061
:102FD00000BF032029E7E08E0028BFD1E08F002842
:102FE000BCD14A463146204602F00EFC40B12020BA
:102FF000606500BF002084F8500000BF012014E786
:10300000A06850B900BF002000902068C068009000
:1030100020688068009000BF00BF012084F8510044
:1030200000BF002084F8500000BF606D08B101208F
:10303000FBE60020F9E600002DE9F04704460E46C5
:1030400017461D4694F85180D4F80490B8F1010F4A
:103050000AD0B9F5827F04D1A06810B9B8F1040F85
:1030600002D00220BDE8F0870EB107B10DB90120F2
:10307000F8E700BF94F85000012801D10220F1E7E1
:10308000012084F8500000BF94F85100042802D0B9
:10309000052084F85100002060652663A586E5863A
:1030A000A763A587E5872064606494F8510004282D
:1030B00006D13548E16C08643448E16CC86305E02A
:1030C0003348E16C08643348E16CC8633248E16C12
:1030D000C8640020E16C0865E38FD4F800C00CF1EF
:1030E0000C01A26BE06CFEF705FD50B1606D40F085
:1030F0001000606500BF002084F8500000BF012070
:10310000B0E72068406840F0010021684860002076
:10311000A16C0864A16CC863A16CC864A16C08654B
:10312000E38ED4F800C00CF10C02216BA06CFEF70A
:10313000E1FC50B1606D40F01000606500BF002000
:1031400084F8500000BF01208CE72068006800F080
:103150004000402805D02068006840F04000216809
:10316000086000BF002084F8500000BF206840685D
:1031700040F02000216848602068406840F002006C
:103180002168486000206DE77556000891560008D8
:10319000835600080D5700084D56000838B5044600
:1031A0000B492068884211D10020009069460948E7
:1031B000006806F095FC009838B14FF08050064941
:1031C0000860BFF34F8FBFF36F8F00BF38BD0000A3
:1031D000003001403400002004ED00E070477047EB
:1031E0007047000030B502460B4600BF92F83C0025
:1031F000012801D1022030BD012082F83C0000BF2F
:10320000022082F83D00106844681068816824F04C
:1032100070041868044310684460184D1068A84290
:103220001BD01068B0F1804F17D0154D1068A84220
:1032300013D0144D1068A8420FD0134D1068A84247
:103240000BD0124D1068A84207D0114D1068A8424B
:1032500003D0104D1068A84205D121F080015868B4
:10326000014310688160012082F83D0000BF00200A
:1032700082F83C0000BF00BFBDE700000000014035
:103280000004004000080040000C00400004014021
:10329000004001400018004010B504460CB9012060
:1032A00010BD94F83D0028B9002084F83C00204669
:1032B00000F026F8022084F83D00211D206802F06D
:1032C00071FF012084F8460000BF84F83E00012110
:1032D0003F200155402001554120015500BF00BF4E
:1032E000012084F842004320015544200155452027
:1032F000015500BF012084F83D000020D0E7000008
:1033000008B50A4A016891420FD100BF002100911F
:103310000749096841F00201054A11601146096830
:1033200001F00201009100BF00BF08BD0004004091
:1033300040380240014691F83D00012801D00120AB
:103340007047022081F83D000868C06840F0010025
:103350000B68D8601A4B086898421BD00868B0F117
:10336000804F17D0174B0868984213D0164B086847
:1033700098420FD0154B086898420BD0144B086840
:10338000984207D0134B0868984203D0124B086844
:1033900098420CD10868806800F00702062A0CD019
:1033A0000868006840F001000B68186005E00868D4
:1033B000006840F001000B6818600020C0E70000C2
:1033C000000001400004004000080040000C0040E4
:1033D0000004014000400140001800402DE9F04188
:1033E00004460D46002700BF94F83C00012802D196
:1033F0000220BDE8F081012084F83C0000BF0220DB
:1034000084F83D002068866826F0770626F47F461B
:10341000206886602868502833D00CDC202850D0E3
:1034200004DC00284BD0102851D149E0302849D085
:1034300040284CD139E060282DD0702807D0B0F555
:10344000805F03D0B0F5005F41D10DE041E0D5E9E8
:1034500002136A68206802F026FF2068866846F03A
:1034600077062068866034E0D5E902136A68206830
:1034700002F019FF2068806840F48040216888606D
:1034800027E0EA686968206802F0FEFF50212068A2
:1034900002F014FF1DE0EA686968206803F007F88D
:1034A0006021206802F00AFF13E0EA68696820687A
:1034B00002F0EAFF4021206802F000FF09E000BFAF
:1034C00000BF00BF2968206802F0F8FE01E0012774
:1034D00000BF00BF012084F83D0000BF002084F839
:1034E0003C0000BF384684E7704770B5044620684A
:1034F000C5682068066906F00200022819D105F0A7
:103500000200022815D1401F2168086101202077A0
:103510002068806900F0030018B12046FFF7E4FF3F
:1035200005E0204600F0E6F8204600F09AF9002079
:10353000207706F00400042819D105F004000428BF
:1035400015D1C04321680861022020772068806976
:1035500000F4407018B12046FFF7C6FF05E0204692
:1035600000F0C8F8204600F07CF90020207706F033
:103570000800082819D105F00800082815D1C04313
:1035800021680861042020772068C06900F00300EA
:1035900018B12046FFF7A8FF05E0204600F0AAF882
:1035A000204600F05EF90020207706F01000102879
:1035B00019D105F01000102815D1C0432168086109
:1035C000082020772068C06900F4407018B12046B8
:1035D000FFF78AFF05E0204600F08CF8204600F057
:1035E00040F90020207706F0010048B105F0010005
:1035F00030B16FF0010021680861204600F0B8F991
:1036000006F08000802809D105F08000802805D1CF
:10361000C043216808612046FFF7E1FD06F0400045
:10362000402809D105F04000402805D1C043216859
:103630000861204600F0A8F906F02000202809D1F2
:1036400005F02000202805D1C043216808612046EC
:10365000FFF7C6FD70BD000010B586B0044614210A
:1036600001A8FCF788FE1F492068884238D100BFB6
:10367000002000901C48006840F002001A490860D1
:103680000846006800F00200009000BF00BF00BFC5
:10369000002000900846006840F0040008600846DA
:1036A000006800F00400009000BF00BF03200190FC
:1036B000022002900020039004900220059001A9AE
:1036C0000A48FEF761FAC020019002200290002013
:1036D000039004900220059001A90548FEF754FAD2
:1036E00006B010BD00040040303802400004024023
:1036F0000008024070472DE9F04104460D46164689
:10370000002700BF94F83C00012802D10220BDE848
:10371000F081012084F83C0000BF36B1042E1BD09C
:10372000082E31D00C2E5ED145E02946206802F0EB
:10373000CFFD2068806940F008002168886120681A
:10374000806920F004002168886120688069296907
:1037500008432168886148E02946206802F0F0FDAE
:103760002068806940F40060216888612068806971
:1037700020F480602168886120688069296940EAB6
:1037800001202168886130E02946206802F016FE99
:103790002068C06940F008002168C8612068C069DD
:1037A00020F004002168C8612068C06929690843C5
:1037B0002168C86119E02946206802F03BFE2068B4
:1037C000C06940F400602168C8612068C06920F4C5
:1037D00080602168C8612068C069296940EA0120C9
:1037E0002168C86101E0012700BF00BF00BF0020C1
:1037F00084F83C0000BF384689E710B504460CB990
:10380000012010BD94F83D0028B9002084F83C0048
:10381000204600F025F8022084F83D00211D206894
:1038200002F0C0FC012084F8460000BF84F83E008E
:1038300001213F200155402001554120015500BF85
:1038400000BF012084F84200432001554420015567
:103850004520015500BF012084F83D000020D0E73D
:103860007047704770B504460D4615B994F83E0090
:103870000BE0042D02D13F20005D06E0082D02D1AF
:103880004020005D01E04120005D012801D00120C1
:1038900070BD1DB9022084F83E000EE0042D03D156
:1038A00002213F20015508E0082D03D102214020CC
:1038B000015502E0022141200155012229462068DC
:1038C00002F0E0FC23492068884203D022492068A6
:1038D000884201D1012000E0002028B12068406C1E
:1038E00040F40040216848641A49206888421BD08F
:1038F0002068B0F1804F17D018492068884213D053
:103900001749206888420FD01649206888420BD09A
:1039100011492068884207D013492068884203D0A3
:103920001249206888420CD12068806800F00706A0
:10393000062E0CD02068006840F001002168086065
:1039400005E02068006840F0010021680860002060
:103950009EE7000000000140000401400004004018
:1039600000080040000C00400040014000180040EA
:1039700010B5044603492068884201D1FEF748FB90
:1039800010BD0000001000407047704770B504463D
:10399000002520684069C0F3C01594F84100212833
:1039A00017D1B5B100BF00BF2168143151E8001F25
:1039B00021F080002168143141E80002002AF3D18F
:1039C00000BFA06B10B1A06BFDF794FE204602F083
:1039D000C1FE20684069C0F3801594F84200222897
:1039E00017D1B5B100BF00BF2168143151E8001FE5
:1039F00021F040002168143141E80002002AF3D18F
:103A000000BFE06B10B1E06BFDF774FE204602F0E2
:103A10005BFE002070BD70472DE9F84F044620681A
:103A200005682068C668206847694FF00009CA46E3
:103A300005F00F09B9F1000F0AD105F0200038B1E7
:103A400006F0200020B1204602F097FEBDE8F88F76
:103A5000B9F1000F7CD007F0010018B906F490709E
:103A6000002875D005F0010030B106F4807018B15F
:103A7000606C40F00100606405F0040030B107F0B4
:103A8000010018B1606C40F00200606405F00200B3
:103A900030B107F0010018B1606C40F004006064C0
:103AA00005F0080048B106F0200010B907F0010049
:103AB00018B1606C40F008006064606C002846D06B
:103AC00005F0200028B106F0200010B1204602F0D9
:103AD00054FE20684069C0F3801A606C00F0080052
:103AE00010B9BAF1000F2DD0204602F0EDFD20688C
:103AF000406900F04000402820D100BF00BF21688D
:103B0000143151E8001F21F040002168143141E8D0
:103B10000002002AF3D100BFE06B50B17F48E16B97
:103B20000865E06BFDF73CFE88B1E06B016D8847EE
:103B30000DE02046FFF76FFF09E009E02046FFF7A0
:103B40006AFF04E02046FFF766FF002060647DE71F
:103B5000206B012878D105F01000002874D006F001
:103B600010000028FAD000BF0020009020680068F4
:103B7000009020684068009000BF00BF2068406946
:103B800000F04000402870D1E06B006840681FFAE8
:103B900080F8B8F1000F58D0A08D404555DDA4F84D
:103BA0002E80E06BC069B0F5807F43D000BF00BFBE
:103BB00021680C3151E8001F21F4807021680C311C
:103BC00041E80002002AF3D100BF00BF00BF216816
:103BD000143151E8001F21F001002168143141E83F
:103BE0000002002AF3D100BF00BF00BF21681431DA
:103BF00051E8001F21F040002168143141E8000223
:103C0000002AF3D100BF202084F842000020206366
:103C100000BF00BF21680C3151E8001F21F01000E7
:103C200021680C3141E80002002AF3D100BFE06BAB
:103C3000FDF760FD02206063A08DE28D801A81B2E5
:103C40002046FFF7A2FE0EE052E0A08D40450AD1CB
:103C5000E06BC069B0F5807F05D102206063A18D63
:103C60002046FFF792FEF1E6FFE7A08DE18D401AB6
:103C70001FFA80F8E08DD0B3B8F1000F37D000BF45
:103C800000BF21680C3151E8001F21F490702168B9
:103C90000C3141E80002002AF3D100BF00BF00BF91
:103CA0002168143151E8001F21F00100216814310E
:103CB00041E80002002AF3D100BF202084F842002E
:103CC0000020206300BF00BF21680C3151E8001FB5
:103CD00021F0100021680C3141E80002002AF3D1E4
:103CE00000BF0220606341462046FFF74EFEADE66E
:103CF00005F0800030B106F0800018B1204602F0D7
:103D00003DFFA3E605F0400030B106F0400018B1D9
:103D1000204602F00FFD99E600BF97E629650008EE
:103D200010B504460CB9012010BDA06900B100E037
:103D300000BF94F8410028B9002084F840002046D4
:103D400000F02AF8242084F841002068C06820F49C
:103D500000502168C860204602F08EFD206800698E
:103D600020F49040216808612068406920F02A0012
:103D7000216848612068C06840F400502168C8602C
:103D800000206064202084F8410084F84200002074
:103D9000606300BFC8E7000010B586B00446142178
:103DA00001A8FCF7E8FA70492068884230D100BFCA
:103DB000002000906D48006840F400206B490860C6
:103DC0000846006800F40020009000BF00BF00BF5C
:103DD0000020009065481038006840F001006349F9
:103DE000103908600846006800F00100009000BF2C
:103DF00000BF0320019002200290002003900320C6
:103E000004900820059001A95948FDF7BDFEA8E0DF
:103E10005849206888426FD100BF00200090534865
:103E2000001D006840F010005049091D0860084658
:103E3000006800F01000009000BF00BF00BF00202D
:103E400000904A481038006840F001004749103996
:103E500008600846006800F00100009000BF00BF45
:103E60004FF4C060019002200290002003900320D4
:103E700004900720059001A93D48FDF785FE3E48C6
:103E80003E4908604FF00060486000213B48816077
:103E9000C1604FF480610161002141618161C161B4
:103EA00001624162FDF7B0FD08B1FCF7C4FE00BF3E
:103EB0003248E063846300BF2F487830304908609F
:103EC0004FF00060486040212D4881600021C160B2
:103ED0004FF480610161002141618161C161016232
:103EE0004162FDF791FD08B1FCF7A5FE00BF244833
:103EF000A063846335E0FFE722492068884230D11F
:103F000000BF002000901948006840F48020174945
:103F100008600846006800F48020009000BF00BFE1
:103F200000BF0020009011481038006840F00200E7
:103F30000E49103908600846006800F00200009041
:103F400000BF00BF4FF440600190022002900020AB
:103F50000390032004900720059001A90A48FDF76B
:103F600013FE06B010BD0000004C00404038024077
:103F7000000002400010014040640240CC050020D7
:103F80002C060020004800400004024070B50446A2
:103F90000D46164694F8420020280BD105B10EB903
:103FA000012070BD0020206332462946204602F0E1
:103FB00079FDF6E70220F4E770477047F7B504464D
:103FC000154694F8410020283ED1019800B10DB962
:103FD0000120FEBD01982062A584E5840020606474
:103FE000212084F841001948A16BC8631848A16BCF
:103FF00008641848A16BC8640020A16B086501AE75
:1040000023681A1D31682B46A06BFDF773FD30B194
:1040100010206064202084F841000120D9E76FF06F
:1040200040002168086000BF00BF2168143151E8DA
:10403000001F41F080002168143141E80002002A8D
:10404000F3D100BF0020C4E70220C2E76366000886
:10405000BB6600083B65000810B5044604492068AB
:10406000884204D100210348006805F039FD10BDE5
:10407000001001401C000020704700BFFEE7000058
:1040800010B5012210210248FDF78AFE10BD000084
:104090000000024010B5002210210248FDF780FE0A
:1040A00010BD00000000024010B52DED068B044647
:1040B00094ED120ADFED150A20EE200AB0EE408AD8
:1040C00094ED130ADFED110A20EE200AF0EE408A8B
:1040D000B0EE480A03F09CF8B0EE409AB0EE680AE1
:1040E00003F096F8F0EE409A29EE290AB0EE40AAC5
:1040F000B0EE4A0A02F042FEF0EE40AA9FED040A3A
:104100002AEE800ABDEC068B10BD000035FA8E3C0D
:10411000E12E65422DE9F84F04460D4600260027A2
:10412000B046B146B246002000909FED540A84ED9F
:10413000150A9FED520A84ED160A9FED500A84ED90
:10414000170A9FED4E0A84ED180A9FED4C0A84ED84
:10415000190A9FED4A0A84ED1A0A83461DE020469B
:1041600000F01AF9B4F906000644B4F9080007444F
:10417000B4F90A008044B4F900008144B4F90200A3
:104180008244B4F90410009808440090022003F01F
:104190003FFD0BF101001FFA80FBAB45DFDB00EEBA
:1041A000106AF8EEC00A00EE105AB8EE401A80EE1F
:1041B000810A9FED331AC0EE010A9FED320A20EE0C
:1041C000800A84ED150A00EE107AF8EEC00A00EEBF
:1041D000105AB8EE401A80EE810A9FED291AC0EEFF
:1041E000010A9FED280A20EE800A84ED160A00EEEF
:1041F000108AF8EEC00A00EE105AB8EE401A80EEAF
:10420000810A9FED1F1AC0EE010A9FED1E0A20EEE3
:10421000800A84ED170A00EE109AF8EEC00A00EE4C
:10422000105AB8EE401A80EE810ADFED170A80EED0
:10423000201A84ED181A00EE10AAF8EEC00A00EE5B
:10424000105AB8EE401A80EE810ADFED0F0A80EEB8
:10425000201A84ED191A009890FBF5F000EE100A70
:10426000F8EEC00A9FED081A80EE810AF7EE000A08
:1042700030EE600A84ED1A0ABDE8F88F00000000F5
:104280003333834135FA8E3C0000004510B5FF20E2
:104290002749087003220021012005F0E5F925498E
:1042A00008600846006808B9002010BDFFF7E8FE66
:1042B000322003F0ADFC002000F0C8F80A2003F023
:1042C000A7FC752000F0A8F804460F214E2000F04E
:1042D000DFF90A2003F09CFC0121112000F0D8F93D
:1042E000012003F095FC58214C2000F0D1F9012069
:1042F00003F08EFC06214F2000F0CAF9012003F0E4
:1043000087FC0621502000F0C3F9012003F080FC57
:104310000021522000F0BCF9012003F079FC0F21AC
:104320004E2000F0B5F9322003F072FC0120BCE70A
:10433000300000203400002070B505460E461446BB
:1043400045F0800010490870611C1048FCF713F814
:10435000FFF7A0FE601C83B20C4A0B490C48FEF725
:104360006BFE64210B48006805F044FD012802D073
:104370000748FEF711FBFFF783FE22460349491C5D
:104380003046FBF7DFFF70BDD4060020E4060020B6
:104390003C030020340000201FB504460E2269466D
:1043A0001D20FFF7C9FF9DF801009DF8001040EAAD
:1043B000012000B2A0819DF803009DF8021040EAA0
:1043C000012000B220809DF805009DF8041040EA0D
:1043D000012000B260809DF807009DF8061040EAB9
:1043E000012000B2A0809DF809009DF8081040EA65
:1043F000012000B2E0809DF80B009DF80A1040EA11
:10440000012000B220819DF80D009DF80C1040EABB
:10441000012000B260811FBD3EB5044644F080001B
:104420008DF8080000208DF80900FFF733FE6420A6
:10443000022301AA02A900900348FEF7D8FCFFF767
:104440001FFE9DF805003EBD3C03002038B5044624
:104450000B480078A04211D076208DF800008DF82E
:104460000140FFF717FE6423022269460548FEF764
:10447000DFFBFFF705FE0248047000BF38BD0000F7
:10448000300000203C03002010B52DED028B86B0DB
:1044900004462046FFF780FFB4F9000000EE100A42
:1044A000B8EEC00ADFED740A80EE201A84ED041A1B
:1044B000B4F9020000EE100AB8EEC00ADFED6E0A91
:1044C00080EE201A84ED051AB4F9040000EE100AFB
:1044D000B8EEC00ADFED680A80EE201A84ED061AF5
:1044E000B4F9060000EE100AF8EEC00A9FED631A58
:1044F00080EE810ADFED620A20EE200A84ED070AD1
:10450000B4F9080000EE100AB8EEC00A9FED5B1A7D
:10451000C0EE010A9FED5A0A20EE800A84ED080AD7
:10452000B4F90A0000EE100AF8EEC00A9FED531A23
:1045300080EE810ADFED520A20EE200A84ED090A9E
:1045400094ED070AD4ED150A30EE600A84ED070AEF
:1045500094ED080AD4ED160A30EE600A84ED080ADC
:1045600094ED090AD4ED170A30EE600A84ED090AC9
:1045700094ED040AD4ED180A30EE600A84ED040AC2
:1045800094ED050AD4ED190A30EE600A84ED050AAF
:1045900094ED060AD4ED1A0A30EE600A84ED060A9C
:1045A000B4F90C0000EE100AF8EEC00A9FED351ABF
:1045B00080EE810AF3EE090A30EE200A84ED0A0A41
:1045C000D4ED040A60EEA00A94ED051AD4ED051AA4
:1045D00041EE210A94ED061AD4ED061A41EE210AA5
:1045E000B0EE600A03F0EEF9B0EE408A9FED260AC5
:1045F000B4EEC08AF1EE10FA06D39FED240AB4EEB1
:10460000C08AF1EE10FA03DD06B0BDEC028B10BDDE
:1046100094ED070A8DED030A94ED080A8DED040A66
:1046200094ED090A8DED050A94ED040A8DED000A5A
:1046300094ED050A8DED010A94ED060A8DED020A4E
:1046400094ED1C1AF0EE410A94ED1B1AB0EE410AEB
:104650006A4603A904F1380000F04CFC04F148015B
:1046600004F1380000F04CFF2046FFF71DFD84EDFB
:104670001E0A00BFC8E70000000000453333834135
:1046800035FA8E3CE17A0443CDCCCC3D0000484263
:1046900038B505460C468DF800508DF80140FFF7FF
:1046A000F9FC6423022269460248FEF7C1FAFFF7CB
:1046B000E7FC38BD3C03002010B5002240210B4828
:1046C000FDF76EFB002280210848FDF769FB00F032
:1046D0000FF8012240210548FDF762FB00F008F8C1
:1046E000002240210148FDF75BFB10BD00040240A1
:1046F0000449486800BF03494968091AA829FAD340
:1047000070470000001000E000B587B0142102A837
:10471000FBF731FE00BF002001901248006840F016
:104720000200104908600846006800F0020001908D
:1047300000BF00BFC0200290112003900120049010
:104740000220059002A90848FDF71EFA0122402127
:104750000548FDF725FB012280210348FDF720FBDA
:1047600007B000BD303802400004024010B50022FE
:1047700040210B48FDF714FB012280210848FDF77A
:104780000FFBFFF7B5FF012240210548FDF708FBAD
:10479000FFF7AEFF002240210148FDF701FB10BDED
:1047A0000004024070B5054600240122802114480F
:1047B000FDF7F6FA002618E06006040E01224021FB
:1047C0000F48FDF7EDFAFFF793FF80210C48FDF746
:1047D000D5FA08B144F00104002240210848FDF751
:1047E000DFFAFFF785FF701CC6B2082EE4DB15B1B7
:1047F000FFF762FF01E0FFF7B9FF204670BD000040
:104800000004024070B50446002240211448FDF720
:10481000C7FA002521E004F0800028B101228021A0
:104820000F48FDF7BDFA04E0002280210C48FDF797
:10483000B7FA6006040EFFF75BFF0122402108482B
:10484000FDF7AEFAFFF754FF002240210448FDF7C0
:10485000A7FAFFF74DFF681CC5B2082DDBDB70BD62
:104860000004024010B5012280210B48FDF798FAA0
:10487000012240210848FDF793FAFFF739FF002293
:1048800080210548FDF78CFAFFF732FF0022402116
:104890000148FDF785FA10BD0004024010B5002262
:1048A00040210C48FDF77CFA002280210948FDF7E1
:1048B00077FAFFF71DFF012240210648FDF770FA45
:1048C000FFF716FF012280210248FDF769FAFFF782
:1048D0000FFF10BD0004024010B50024012280210A
:1048E0001048FDF75DFAFFF703FF012240210D4854
:1048F000FDF756FAFFF7FCFE07E0601CC4B2FA2C85
:1049000003DDFFF7CBFF012010BD80210548FDF737
:1049100035FA0028F1D1002240210248FDF740FA83
:104920000020F1E70004024000B97047B5EEC00A6C
:10493000F1EE10FA03D2DFED0C0AB0EE600AF7EEEA
:10494000000AB4EEE00AF1EE10FA03DDF7EE000A19
:10495000B0EE600A80ED000ADFED030AC0ED010A47
:104960000021017200BFE0E700000000F0EE400A05
:1049700010B9B0EE600A7047017A31B9C0ED010A92
:1049800001210172B0EE600AF5E790ED000AF7EE42
:10499000001A31EEC00AD0ED011A20EE210AD0ED46
:1049A000001AB0EE401A01EEA01A80ED011AB0EE26
:1049B000410AE0E71FB500200090019002900390AB
:1049C0001648174908604FF48030486000211448A9
:1049D0008160016101210176002180F82010C1620F
:1049E000104981620021C1600121C161002180F86C
:1049F000301001214161FCF7FBFC08B1FCF71BF909
:104A00000E20009001200190072002906946044882
:104A1000FCF720FC08B1FCF70EF91FBD0020014097
:104A2000A00200200100000F08B500BF0020009088
:104A30001648006840F48000144908600846006881
:104A400000F48000009000BF00BF00220521382044
:104A5000FDF7A0FB3820FDF789FB002205213A2055
:104A6000FDF798FB3A20FDF781FB002205213B2052
:104A7000FDF790FB3B20FDF779FB00220521462046
:104A8000FDF788FB4620FDF771FB08BD303802407A
:104A900010B503220021012004F0E6FD274908603B
:104AA00000231A4619462548006804F0C7FE002274
:104AB0001221032003F042F9214908600022242139
:104AC000012003F03BF91F49086000222421012046
:104AD00003F034F91C49086000220421012003F08E
:104AE0002DF91A49086000220421012003F026F95B
:104AF0001749086000220121080205F057FA1549FC
:104B00000860154A0021154803F0A8F91449086007
:104B1000144A0021144803F0A1F914490860144A0A
:104B20000021144803F09AF913490860134A002140
:104B3000134803F093F91349086010BD1C000020CE
:104B400004000020080000200C00002010000020BD
:104B50001400002018000020B0AC000869590008BB
:104B600020000020D4AC00087D5D00082400002057
:104B7000F8AC0008A95E0008280000201CAD000861
:104B8000355A00082C00002000B587B0142102A877
:104B9000FBF7F1FB00BF002001903E48006840F0A9
:104BA00004003C4908600846006800F004000190D9
:104BB00000BF00BF00BF002001900846006840F021
:104BC000800008600846006800F08000019000BF87
:104BD00000BF00BF002001900846006840F00100BF
:104BE00008600846006800F00100019000BF00BFA7
:104BF00000BF002001900846006840F002000860F5
:104C00000846006800F00200019000BF00BF0122CA
:104C100051032148FDF7C4F8002248F210011F4853
:104C2000FDF7BEF801224FF440711D48FDF7B8F8BA
:104C30004FF4005002900120039000200490059052
:104C400002A91548FCF7A0FF48F2100002900120CD
:104C5000039000200490059002A91048FCF794FFEF
:104C6000202002904FF4881003900020049002A9A5
:104C70000948FCF789FF4FF440700290012003902F
:104C800000200490059002A90548FCF77DFF07B0BD
:104C900000BD000030380240000802400000024021
:104CA0000004024010B50B480B4908600B484860EF
:104CB000002109488160C1604FF4804101610021F9
:104CC00041618161C1610162FDF776F808B1FBF7CE
:104CD000B2FF10BD00540040E8020020A086010091
:104CE00010B50E480E4908604FF4827048600021EC
:104CF0000B488160C160016141614FF400718161C5
:104D00000821C16100210162416281620A21C16200
:104D1000FDF767FE08B1FBF78EFF10BD00300140C4
:104D20003C03002010B50E480E4908604FF4827015
:104D3000486000210B488160C160016141614FF40E
:104D4000007181610021C1610162416281620A21B9
:104D5000C162FDF746FE08B1FBF76DFF10BD000014
:104D6000003C00409403002000B58DB00020099065
:104D70000A900B900C90079008901C216846FBF756
:104D8000FAFA2C482C4908600020486000212A4883
:104D9000816041F26701C160002101618161FEF71C
:104DA0007BFA08B1FBF747FF4FF48050099009A93F
:104DB0002148FEF713FB08B1FBF73DFF1E48FEF745
:104DC0001CFD08B1FBF737FF00200790089007A9EA
:104DD0001948FEF707FA08B1FBF72DFF6020009095
:104DE0000020019002900490002269461248FEF7CC
:104DF00082FC08B1FBF71FFF042269460E48FEF74C
:104E00007AFC08B1FBF717FF082269460A48FEF74B
:104E100072FC08B1FBF70FFF0C2269460648FEF74B
:104E20006AFC08B1FBF707FF0348FEF715FC0DB05D
:104E300000BD000000040040AC04002010B50B4889
:104E40000B4908604FF4E130486000210848816058
:104E5000C16001610C21416100218161C161FEF7E6
:104E60005FFF08B1FBF7E7FE10BD0000004C0040FB
:104E7000F404002010B50F480F4908604FF4E130EA
:104E8000486000210C488160C16001610C214161D2
:104E900000218161C161FEF743FF08B1FBF7CBFE42
:104EA000002205212520FDF775F92520FDF75EF983
:104EB00010BD0000001001403C05002010B50A485C
:104EC0000A4908600A484860002108488160C160BA
:104ED00001610C21416100218161C161FEF720FF68
:104EE00008B1FBF7A8FE10BD004800408405002073
:104EF00040420F0070B52DED108B92B004460D4668
:104F00001646F0EE40BAB0EE60CA94ED000AB0EE7C
:104F100040AA94ED010AF0EE408A94ED020AB0EE48
:104F2000409A94ED030AF0EE409A96ED000AB0EE36
:104F300040BA96ED010AF0EE40AA96ED020AF0EEB4
:104F400040CA95ED000AF0EE40FA95ED010A8DEDAC
:104F5000110A95ED020A8DED100A6BEE0B0A4AEE6E
:104F6000AA0A4CEEAC0AB0EE600A02F02BFDB0EEDD
:104F7000408A9FEDC20AB4EEC08AF1EE10FA03D265
:104F800012B0BDEC108B70BDB7EE000AC0EE080A7F
:104F9000B0EE608A2BEE080AB0EE40BA2AEE880A1C
:104FA000F0EE40AA2CEE880AF0EE40CAB0EE000AFD
:104FB0002AEE000A8DED0F0AB0EE000A28EE800AF4
:104FC0008DED0E0AB0EE000A29EE000A8DED0D0AF5
:104FD000B0EE000A29EE800A8DED0C0AB1EE000A4F
:104FE0002AEE000A8DED0B0AB1EE000A28EE800AC7
:104FF0008DED0A0AB1EE000A29EE000A8DED090ACC
:10500000B2EE000A28EE800A8DED080AB2EE000A20
:1050100029EE000A8DED070A2AEE0A0A8DED060A2E
:1050200028EEA8DA69EE09DA29EEA90A8DED050A5B
:105030009DED0B0A60EE2D0A9DED0D0A40EE0B0A68
:105040009DED0B0A40EE0D0A9DED0E1AB0EE600AC2
:1050500001EE6A0A8DED040A9DED0A0ADDED050AEE
:1050600020EE200ADDED0C0A00EECB0ADDED060A8B
:10507000B1EE001A20EE811AF0EE400A41EE280A45
:105080009DED0F0A40EE6A0A9DED0A0A30EEC00A55
:10509000DDED080A00EE8D0ADDED080A00EEAD0A2E
:1050A000DDED0A0AB0EE40EA00EEACEA9DED060A3C
:1050B000F1EE000A20EE200A60EE090A9DED0F0ACB
:1050C00040EE0B0A9DED090A9DED051A40EE010A1E
:1050D0009DED0C0A40EE6A0A9DED090A30EEC00A09
:1050E000DDED070A00EE8D0ADDED070A00EEAD0AE0
:1050F000DDED090AF0EE40EA40EEACEAB1EE000A5E
:105100002DEE000A60EE290A9DED0E0A40EE4B0AD4
:10511000B1EE000A2DEE800A40EE290A9DED0D0A3F
:10512000B0EE60FA00EE6AFADDED040A60EEA00A65
:105130004EEE0E0A4EEEAE0A4FEE0F0AB0EE600AC9
:1051400002F040FCB0EE408A9FED4C0AB4EEC08AFB
:10515000F1EE10FA00D213E7B7EE000AC0EE080A2B
:10516000B0EE608A9DED040A20EE080A8DED040A77
:105170002EEE080AB0EE40EA2EEE880AF0EE40EA83
:105180002FEE080AB0EE40FAB1EE680A20EE2F0AC0
:10519000DDED110A09EE600ADDED100A09EEE00A04
:1051A000F6EE000A20EE200ADDED040A0CEE600A9D
:1051B0008DED030A2AEE2F0ADDED100A09EE200A12
:1051C000DDED110A09EEE00AF6EE000A20EE200AF3
:1051D0000CEE4E0A8DED020A9DED110A2AEE000A30
:1051E000DDED100A08EEE00A09EEAF0AF6EE000A5D
:1051F00020EE200A0CEE6E0A8DED010A9DED100ADC
:105200002AEE000ADDED110A08EEA00A09EE6F0A87
:10521000F6EE000A20EE200A0CEE4F0A8DED000A91
:105220009DED030AF0EE4A0A40EE2B0AB0EE60AAAA
:105230009DED020AF0EE680A40EE2B0AF0EE608A5D
:105240009DED010AF0EE490A40EE2B0AB0EE609A9D
:105250009DED000AF0EE690A40EE2B0AF0EE609A2E
:1052600084ED00AAC4ED018A84ED029AC4ED039A8C
:10527000204600F0F9F800BF82E6000017B7D138E9
:1052800000BFFEE770B504460D4616460CB105B1E9
:1052900006B970BD2560A6800020E0809FED050A5C
:1052A00084ED020A2073B1002846FBF764F800BFC2
:1052B000EFE7000000000000F0EE400A08B10168CE
:1052C00011B9B0EE600A7047C288016801EB820133
:1052D00091ED000A90ED021A31EE400A80ED020ACB
:1052E00090ED020A30EE200A80ED020AC2880168C1
:1052F00001EB8201C1ED000AC188491CC180C1884F
:105300008288914203DB0021C18001210173017B6E
:1053100049B190ED021A818800EE101AF8EE401A99
:1053200081EE210ACFE790ED021AC18800EE101A33
:10533000F8EE401A81EE210AC5E700BFFEE7000043
:105340009FED080A80ED030A9FED060A80ED050A2D
:105350009FED040A80ED060A9FED020A80ED080A1F
:105360007047000000000000B0EE401AF0EE601A36
:1053700090ED030A01EE210A80ED030A90ED040A84
:10538000B5EEC00AF1EE10FA1EDD90ED030AD0ED85
:10539000042AB4EEE20AF1EE10FA04DD90ED040AFC
:1053A00080ED030A10E090ED030AD0ED042AF1EE3F
:1053B000622AB4EEE20AF1EE10FA05D290ED040A88
:1053C000B1EE400A80ED030A90ED050A31EE400A85
:1053D00080EE212AD0ED070AF5EEC00AF1EE10FAB0
:1053E00006D9B7EE000AF4EEC00AF1EE10FA03DDBA
:1053F000B7EE000AF0EE400AB7EE000A30EE600A9F
:10540000D0ED082A20EE220A00EE820A80ED080A7A
:1054100090ED010AD0ED032A20EE220AD0ED002AF9
:1054200002EE810AD0ED022A90ED083A02EE830ADC
:1054300080ED060A80ED051A90ED060A704700001F
:10544000B7EE000A80ED000A9FED060A80ED010A22
:105450009FED040A80ED020A9FED020A80ED030A27
:10546000704700000000000010B52DED028B0446CF
:10547000D4ED000A60EEA00A94ED011AD4ED011AF1
:1054800041EE210A94ED021AD4ED021A41EE210AEE
:1054900094ED031AD4ED031A41EE210AB0EE600A2E
:1054A00002F090FAB0EE408A9FED140AB4EEC08A82
:1054B000F1EE10FA1EDDF7EE000A80EE881AB0EE6B
:1054C000410AD4ED000A60EE800AC4ED000AD4ED72
:1054D000010A60EE800AC4ED010AD4ED020A60EE12
:1054E000800AC4ED020AD4ED030A60EE800AC4ED1E
:1054F000030A00BFBDEC028B10BD000017B7D13806
:1055000030B52DED068B81B004460D4694ED000AB2
:10551000D4ED010A20EE200AD4ED020A94ED031A1C
:1055200000EE810AF0EE000A20EE200AF0EE409A2A
:1055300094ED010A20EE000AD4ED020A94ED021A5D
:1055400000EE810AF7EE000AB0EE001A41EE400AC2
:10555000B0EE60AAF0EE4A0AB0EE690A01F030FD42
:10556000B1EE400ADFED370A20EE200A85ED010A90
:1055700094ED000AD4ED020A20EE200AD4ED030ACD
:1055800094ED011A00EEC10AF0EE000A20EE200AA6
:10559000B0EE408AB0EEC80AF7EE000AB4EEE00AB8
:1055A000F1EE10FA0FDB9FED280A8DED000A18EEE0
:1055B000100A0246009961F31E0200929DED000A56
:1055C00085ED000A09E0B0EE480A01F063FCDFED6A
:1055D0001D0A20EE200A85ED000A94ED000AD4EDA4
:1055E000030A20EE200AD4ED010A94ED021A00EE1F
:1055F000810AF0EE000A60EE208A94ED020A20EEA5
:10560000000AD4ED030A94ED031A00EE810AF7EEC6
:10561000000AB0EE001AB0EE609A01EE409AF0EE89
:10562000490AB0EE680A01F0CBFCB1EE400ADFEDAA
:10563000050A20EE200A85ED020A01B0BDEC068BBA
:1056400030BD0000E12E65420000B44270B5054651
:10565000AC6B2068406820F0030021684860606DF2
:1056600040F010006065012084F851002046FDF7ED
:10567000B7F970BD70B50446A56B2846FDF7D7FA9B
:1056800070BD70B50446A56B2846FDF7A7FD70BD3B
:1056900070B50546AC6BFCF789FB064628680068C8
:1056A00000F48070B0F5807F2BD02068406820F037
:1056B000200021684860A06850B96068B0F5827F1A
:1056C00006D12068406820F003002168486005E0AA
:1056D0002068406820F0010021684860324664215B
:1056E000204600F047F808B1202060650020E087E0
:1056F000012084F85100606D18B12046FDF770F963
:1057000070BD2046FDF792FA00BFF9E770B5054677
:10571000AC6BFCF74BFB06462868006800F4807011
:10572000B0F5807F21D02068406820F020002168FB
:10573000486032466421204600F066F818B1606D7A
:1057400040F0200060652068406820F00300216878
:1057500048600020E086E087012084F85100606DF9
:1057600018B12046FDF73CF970BD2046FDF716FD47
:1057700000BFF9E7F8B504460E4615466068B0F577
:10578000827F0DD1A068B0F5004F03D0A068B0F5BE
:10579000806F05D12068006820F040002168086013
:1057A0006068B0F5827F1FD1A068B0F5806F0DD022
:1057B0003346002280212046009500F069F808B3A6
:1057C000606D40F0200060650320F8BD3346002284
:1057D00001212046009500F05BF898B1606D40F023
:1057E000200060650320F0E73346002201212046B7
:1057F000009500F04DF828B1606D40F02000606524
:105800000320E2E70020E0E77CB504460E4615469B
:105810003346012202212046009500F039F828B1D4
:10582000606D40F02000606503207CBD1648006874
:105830001821B0FBF1F01549B0FBF1F04FF47A718B
:10584000484301906068B0F5827F0DD13346002255
:1058500080212046009500F01BF898B1606D40F063
:10586000200060650320E0E700BF019800B908E070
:105870000198401E019020688068C0F3C010002885
:10588000F3D100BF0020D0E75C00002040420F00B1
:105890002DE9F84F04460D4690461E46DDF8289047
:1058A000FCF784FAA0EB0900371AFCF77FFA82466E
:1058B0002C480068C0F3CB307843009046E0701C61
:1058C000002843D0FCF772FAA0EB0A00B84200D2DD
:1058D000A7BB2068406820F0E0002168486060684D
:1058E000B0F5827F0DD1A068B0F5004F03D0A0685D
:1058F000B0F5806F05D12068006820F04000216875
:105900000860A06AB0F5005F0DD100BF2068006894
:1059100020F40050216808602068006840F40050BE
:105920002168086000BF012084F8510000BF0020FA
:1059300084F8500000BF0320BDE8F88FFFE700980F
:1059400008B9002702E00098401E00902068806897
:105950002840A84201D1012000E000204045AED1FE
:105960000020E9E75C0000202DED028BB2B0FBF7D0
:105970004DF94FF4FA6002F04BF9202202A922A857
:10598000FFF780FC26A8FAF77BFF20B300241AE07B
:1059900026A8FBF72DF826A8FAF74AFEDDED280A1F
:1059A000B0EE600A22A8FFF787FC8DED010A202CDB
:1059B00005DB9DED010A38EE000AB0EE408A1420A6
:1059C00002F026F9641C642CE2DB9FED170AC8EE96
:1059D000000AB0EE608A00BF04F060FE009026A8C6
:1059E000FBF706F826A8FAF723FEDDED280AB0EE4D
:1059F000600A22A8FFF760FC30EE480A8DED010A2C
:105A000000231A4601A90948006802F0E5F90023BD
:105A10001A4601A90648006802F0DEF9142168461A
:105A200003F088FBD8E70000000088421000002047
:105A3000140000202DED068BB4B041F2040002F0FA
:105A4000E7F80021BF48FDF70DFF0421BD48FDF731
:105A500009FF0821BB48FDF705FF0C21B948FDF7F8
:105A600001FF0020B74909684863B649096888639F
:105A7000B4490968C863B34909680864B248FBF7C8
:105A8000DDF87C2114A8FAF776FC9FEDB00A8DEDC5
:105A90002F0A14210FA8FAF76EFC9FEDAD0AF0EE65
:105AA000408A00BF04F0FAFD339000231A4606A98D
:105AB000A848006802F002F918BB9DED060A8DEDBA
:105AC000260A9DED070A8DED270A9DED080A8DED4A
:105AD000280A9DED090A8DED1B0A9DED0A0A8DED40
